:100000000C94A7000C94C4000C94C4000C94C4007D
:100010000C94C4000C94C4000C94C4000C94A4026E
:100020000C94C4000C9479020C94C4000C94C40089
:100030000C94C4000C94C4000C94C4000C94C40030
:100040000C94C4000C94C4000C94C4000C94C40020
:100050000C94C40000407A10F35A00A0724E1809A4
:100060000010A5D4E80000E87648170000E40B541F
:10007000020000CA9A3B000000E1F50500008096EE
:100080009800000040420F000000A0860100000020
:10009000102700000000E8030000000064000000DA
:1000A00000000A00000000000100000000002C76A3
:1000B000D888DC674F0823DFC1DFAE59E1B1B796BE
:1000C000E5E3E453C63AE651997696E8E6C284261B
:1000D000EB898C9B62ED407C6FFCEFBC9C9F40F2F7
:1000E000BAA56FA5F490055A2AF75C936B6CF96773
:1000F0006DC11BFCE0E40D47FEF520E6B500D0ED38
:10010000902E0300943577050080841E080000209F
:100110004E0A000000C80C333333330F986E12833D
:100120001141EF8D2114893BE65516CFFEE6DB1811
:10013000D1844B381BF77C1D901DA4BBE4242032D6
:1001400084725E228100C9F124ECA1E53D271124CF
:100150001FBECFE5D8E0DEBFCDBF11E0A0E6B0E026
:10016000ECE0F5E502C005900D92A233B107D9F796
:1001700011E0A2E3B1E001C01D92A138B107E1F79F
:100180000E942B210C94842A0C9400000F931F933F
:10019000DF93CF9300D000D0CDB7DEB769837A83E9
:1001A0008B839C83E1E2F0E0108200E210E080E0CB
:1001B00094E2A4EFB0E029813A814B815C81BC01DB
:1001C000CD010E949B27DA01C9014097A109B1091D
:1001D000B695A79597958795F8018083E6E5F0E0B9
:1001E00084E080830F900F900F900F90CF91DF915C
:1001F0001F910F910895DF93CF93CDB7DEB760EADB
:1002000076E881E090E00E94C600CF91DF910895EA
:10021000DF93CF930F92CDB7DEB78983E2E2F0E0B0
:100220008981880F80830E94FB000F90CF91DF911E
:100230000895DF93CF930F92CDB7DEB7898389817D
:1002400080933401109235010F90CF91DF91089582
:10025000DF93CF93CDB7DEB781E00E943201CF911B
:10026000DF910895DF93CF9300D00F92CDB7DEB723
:100270008A83E6E5F0E084EA8083E6E5F0E08081C9
:100280008823DCF7E3E2F0E080913401880F80837B
:10029000E6E5F0E084E88083E6E5F0E0808188230D
:1002A000DCF7E1E2F0E08081882F90E0887F9070B9
:1002B0008831910519F081E08B833BC0198223C0FE
:1002C000A3E2B0E08981882F90E0FC01EA5AFE4F5A
:1002D00080818C93E6E5F0E084E88083E6E5F0E059
:1002E00080818823DCF7E1E2F0E08081882F90E0D4
:1002F000887F90708832910519F082E08B8319C055
:1003000089818F5F89839091350189818917C0F236
:100310008A81882369F0E6E5F0E084E98083E6E5F8
:10032000F0E08081882F90E0807190700097B9F79D
:100330001B828B810F900F900F90CF91DF910895CA
:10034000DF93CF9300D0CDB7DEB789836A838981ED
:100350006A8141E00E94B1010F900F90CF91DF912F
:100360000895DF93CF9300D000D00F92CDB7DEB7C2
:100370008A836B834C831982E6E5F0E084EA80830C
:10038000E6E5F0E080818823DCF7E3E2F0E08A81B3
:10039000882F90E0880F991F81608083E6E5F0E068
:1003A00084E88083E6E5F0E080818823DCF7E1E201
:1003B000F0E08081882F90E0887F907080349105F4
:1003C00039F11D8240C08981282F30E08B81882F30
:1003D00090E001972817390729F4E6E5F0E084E872
:1003E000808304C0E6E5F0E084EC8083E6E5F0E09D
:1003F00080818823DCF78981882F90E0E3E2F0E0B8
:100400002081FC01EA5CFE4F208389818F5F898314
:1004100099818B819817B8F210923201898180936B
:1004200033018C81882369F0E6E5F0E084E980837C
:10043000E6E5F0E08081882F90E080719070009771
:10044000B9F789818D838D810F900F900F900F9058
:100450000F90CF91DF910895DF93CF930F92CDB797
:10046000DEB7898380913501803268F420913501AF
:10047000822F90E0FC01EA5AFE4F89818083822F0F
:100480008F5F809335010F90CF91DF910895DF93B7
:10049000CF930F92CDB7DEB79091320180913301A7
:1004A000981710F019820DC020913201822F90E030
:1004B000FC01EA5CFE4F80818983822F8F5F8093ED
:1004C000320189810F90CF91DF910895DF93CF930F
:1004D000CDB7DEB780913301282F30E08091320113
:1004E000882F90E0A901481B590BCA01CF91DF91D9
:1004F00008951F920F920FB60F9211248F939F931E
:10050000AF93BF93DF93CF93CDB7DEB780917801E0
:1005100090917901A0917A01B0917B010196A11D82
:10052000B11D8093780190937901A0937A01B093E3
:100530007B01CF91DF91BF91AF919F918F910F90F0
:100540000FBE0F901F9018951F920F920FB60F922B
:1005500011242F933F934F935F936F937F938F93C8
:100560009F93AF93BF93EF93FF93DF93CF93CDB759
:10057000DEB78091760190917701009729F0E091A4
:100580007601F09177010995CF91DF91FF91EF917D
:10059000BF91AF919F918F917F916F915F914F919B
:1005A0003F912F910F900FBE0F901F901895DF93E2
:1005B000CF9300D0CDB7DEB79A838983ACE4B0E0A7
:1005C000E981FA818081918111969C938E9310929A
:1005D00078011092790110927A0110927B01E981E1
:1005E000FA818581882391F4A9E5B0E0E9E5F0E09E
:1005F000808184608C93EFE4F0E088E08083AEE457
:10060000B0E0E981FA8184818C931EC0AAE4B0E055
:10061000E981FA818281938111969C938E93A9E559
:10062000B0E0E9E5F0E0808180618C93EFE4F0E0F8
:1006300088E08083AEE4B0E0E981FA819481E981C9
:10064000FA818581892B8C930F900F90CF91DF9148
:100650000895DF93CF93CDB7DEB7ECE4F0E01182DD
:100660001082EEE4F0E0108210927801109279018D
:1006700010927A0110927B01CF91DF910895DF9360
:10068000CF9300D0CDB7DEB79A83898389819A81D1
:1006900090937701809376010F900F90CF91DF9127
:1006A0000895DF93CF9300D000D0CDB7DEB7F89494
:1006B0008091780190917901A0917A01B0917B01AC
:1006C000AC0133272227ECE4F0E080819181CC015A
:1006D000A0E0B0E0822B932BA42BB52B89839A83C7
:1006E000AB83BC83789489819A81AB81BC81BC0146
:1006F000CD010F900F900F900F90CF91DF91089543
:10070000DF93CF9300D0CDB7DEB79A838983A0E281
:10071000B0E0E981FA8181818C93E1E2F0E010821E
:10072000A2E2B0E0E981FA818081880F8C93E6E54E
:10073000F0E084E080830F900F90CF91DF910895D7
:10074000DF93CF9300D00F92CDB7DEB78A83E6E573
:10075000F0E084EA8083E6E5F0E080818823DCF73E
:10076000E1E2F0E08081887F89838981883011F01F
:100770001B8220C0E3E2F0E08A818083E6E5F0E0BE
:1007800084E88083E6E5F0E080818823DCF7E1E21D
:10079000F0E08081887F89838981883119F481E044
:1007A0008B8308C08981803219F482E08B8302C078
:1007B00083E08B838B810F900F900F90CF91DF910F
:1007C0000895DF93CF93CDB7DEB7E6E5F0E084E997
:1007D0008083CF91DF910895DF93CF930F92CDB7B0
:1007E000DEB78983E3E2F0E089818083E6E5F0E02B
:1007F00084E88083E6E5F0E080818823DCF70F90D1
:10080000CF91DF910895DF93CF93CDB7DEB7E6E5C3
:10081000F0E084EC8083E6E5F0E080818823DCF77B
:10082000E3E2F0E08081CF91DF910895DF93CF93F1
:10083000CDB7DEB7E6E5F0E084E88083E6E5F0E0FA
:1008400080818823DCF7E3E2F0E08081CF91DF91C3
:100850000895DF93CF930F92CDB7DEB7E1E2F0E0DA
:100860008081887F898389810F90CF91DF9108955E
:10087000DF93CF9300D000D00F92CDB7DEB789833E
:100880006A834B838A81883008F0D5C0898184309F
:1008900008F0D1C08981282F30E03D832C838C81E2
:1008A0009D818130910509F443C02C813D81223026
:1008B00031052CF48C819D81009771F0BCC02C8196
:1008C0003D812230310509F45FC08C819D818330E8
:1008D000910509F485C0AFC08B818130A1F4AAE3F2
:1008E000B0E0EAE3F0E08081482F8A81282F30E0F1
:1008F00081E090E0022E02C0880F991F0A94E2F76F
:10090000842B8C9398C0AAE3B0E0EAE3F0E0808106
:10091000482F8A81282F30E081E090E0022E02C02B
:10092000880F991F0A94E2F7809584238C9383C0E3
:100930008B818130A1F4A7E3B0E0E7E3F0E08081B0
:10094000482F8A81282F30E081E090E0022E02C0FB
:10095000880F991F0A94E2F7842B8C936CC0A7E34D
:10096000B0E0E7E3F0E08081482F8A81282F30E073
:1009700081E090E0022E02C0880F991F0A94E2F7EE
:10098000809584238C9357C08B818130A1F4A4E39C
:10099000B0E0E4E3F0E08081482F8A81282F30E046
:1009A00081E090E0022E02C0880F991F0A94E2F7BE
:1009B000842B8C9340C0A4E3B0E0E4E3F0E08081BA
:1009C000482F8A81282F30E081E090E0022E02C07B
:1009D000880F991F0A94E2F7809584238C932BC08B
:1009E0008B818130A1F4A1E3B0E0E1E3F0E080810C
:1009F000482F8A81282F30E081E090E0022E02C04B
:100A0000880F991F0A94E2F7842B8C9314C0A1E3FA
:100A1000B0E0E1E3F0E08081482F8A81282F30E0C8
:100A200081E090E0022E02C0880F991F0A94E2F73D
:100A3000809584238C930F900F900F900F900F90C0
:100A4000CF91DF910895DF93CF9300D000D00F9224
:100A5000CDB7DEB789836A834B838A81883008F0FB
:100A6000D5C08981843008F0D1C08981282F30E039
:100A70003D832C838C819D818130910509F443C095
:100A80002C813D81223031052CF48C819D81009791
:100A900071F0BCC02C813D812230310509F45FC06A
:100AA0008C819D818330910509F485C0AFC08B8115
:100AB0008130A1F4ABE3B0E0EBE3F0E08081482FBC
:100AC0008A81282F30E081E090E0022E02C0880F5A
:100AD000991F0A94E2F7842B8C9398C0ABE3B0E0A3
:100AE000EBE3F0E08081482F8A81282F30E081E01D
:100AF00090E0022E02C0880F991F0A94E2F78095B9
:100B000084238C9383C08B818130A1F4A8E3B0E06F
:100B1000E8E3F0E08081482F8A81282F30E081E0EF
:100B200090E0022E02C0880F991F0A94E2F7842BEE
:100B30008C936CC0A8E3B0E0E8E3F0E08081482F3C
:100B40008A81282F30E081E090E0022E02C0880FD9
:100B5000991F0A94E2F7809584238C9357C08B8168
:100B60008130A1F4A5E3B0E0E5E3F0E08081482F17
:100B70008A81282F30E081E090E0022E02C0880FA9
:100B8000991F0A94E2F7842B8C9340C0A5E3B0E050
:100B9000E5E3F0E08081482F8A81282F30E081E072
:100BA00090E0022E02C0880F991F0A94E2F7809508
:100BB00084238C932BC08B818130A1F4A2E3B0E01D
:100BC000E2E3F0E08081482F8A81282F30E081E045
:100BD00090E0022E02C0880F991F0A94E2F7842B3E
:100BE0008C9314C0A2E3B0E0E2E3F0E08081482FF0
:100BF0008A81282F30E081E090E0022E02C0880F29
:100C0000991F0A94E2F7809584238C930F900F909C
:100C10000F900F900F90CF91DF910895DF93CF93B6
:100C200000D000D00F92CDB7DEB78A836B831982D4
:100C30008B81883008F084C08A81843008F080C0BD
:100C40008A81282F30E03D832C834C815D814130A7
:100C5000510579F18C819D818230910534F42C818C
:100C60003D812115310569F06BC04C815D814230B9
:100C70005105B9F18C819D818330910509F449C0FA
:100C80005FC0E9E3F0E08081282F30E08B81882F7E
:100C900090E0A90102C0559547958A95E2F7CA01EF
:100CA00081709070882319F081E0898349C019828E
:100CB00047C0E6E3F0E08081282F30E08B81882F69
:100CC00090E0A90102C0559547958A95E2F7CA01BF
:100CD00081709070882319F081E0898331C0198276
:100CE0002FC0E3E3F0E08081282F30E08B81882F54
:100CF00090E0A90102C0559547958A95E2F7CA018F
:100D000081709070882319F081E0898319C019825D
:100D100017C0E0E3F0E08081282F30E08B81882F3E
:100D200090E0A90102C0559547958A95E2F7CA015E
:100D300081709070882319F081E0898301C0198245
:100D400089810F900F900F900F900F90CF91DF91AE
:100D50000895DF93CF9300D000D0CDB7DEB789835D
:100D60006A838981843090F58981282F30E03C8323
:100D70002B838B819C8181309105D1F02B813C812B
:100D8000223031052CF48B819C81009761F01EC0CC
:100D90002B813C812230310581F08B819C81833015
:100DA000910581F013C0EAE3F0E08A8180830EC0F0
:100DB000E7E3F0E08A81808309C0E4E3F0E08A8120
:100DC000808304C0E1E3F0E08A8180830F900F907C
:100DD0000F900F90CF91DF910895DF93CF9300D0C4
:100DE00000D0CDB7DEB789836A838981843090F5DE
:100DF0008981282F30E03C832B838B819C8181303B
:100E00009105D1F02B813C81223031052CF48B816E
:100E10009C81009761F01EC02B813C8122303105FE
:100E200081F08B819C818330910581F013C0EBE3CD
:100E3000F0E08A8180830EC0E8E3F0E08A8180835D
:100E400009C0E5E3F0E08A81808304C0E2E3F0E0DA
:100E50008A8180830F900F900F900F90CF91DF9138
:100E60000895DF93CF9300D000D0CDB7DEB78A834B
:100E700019828A81843090F58A81282F30E03C8362
:100E80002B838B819C8181309105D1F02B813C811A
:100E9000223031052CF48B819C81009761F01EC0BB
:100EA0002B813C812230310581F08B819C81833004
:100EB000910581F013C0E9E3F0E0808189830EC0E1
:100EC000E6E3F0E08081898309C0E3E3F0E080811C
:100ED000898304C0E0E3F0E08081898389810F90F9
:100EE0000F900F900F90CF91DF910895DF93CF93E4
:100EF00000D000D0CDB7DEB79A838983E981FA812B
:100F00008081282F30E03C832B838B819C81813032
:100F1000910531F02B813C812330310571F019C0EE
:100F200080E090E0A0EAB0E480937D0190937E01A0
:100F3000A0937F01B09380010CC08AE097EDA3E2FB
:100F4000B0E480937D0190937E01A0937F01B093E4
:100F50008001A7E2B0E0E7E2F0E08081282F2F7364
:100F6000E981FA818081882F90E000249695879509
:100F70000794969587950794982F802D822B8C93B4
:100F8000A6E2B0E0E6E2F0E08081982F987FE98168
:100F9000FA818181892B80688C930F900F900F903C
:100FA0000F90CF91DF910895DF93CF930F92CDB73C
:100FB000DEB78983A7E2B0E0E7E2F0E08081982F16
:100FC000907E89818F71892B8C93A6E2B0E0E6E256
:100FD000F0E0808180648C93E6E2F0E08081882FED
:100FE00090E0807190700097B9F3A6E2B0E0E6E27D
:100FF000F0E0808180618C93E4E2F0E08081918177
:101000000F90CF91DF910895DF93CF93CDB7DEB7E7
:101010002A970FB6F894DEBF0FBECDBF9A87898797
:1010200089859A850E94341EAA2797FDA095BA2F1C
:10103000BC01CD010E942D26DC01CB018D839E8356
:10104000AF83B8876D817E818F81988520E030E005
:1010500040E450E40E94E126DC01CB01BC01CD015B
:1010600020E030E040E351E40E94E126DC01CB01C6
:10107000BC01CD0120E030E04AE754E40E9497250E
:10108000DC01CB0189839A83AB83BC8389819A81FC
:10109000AB81BC81BC01CD012A960FB6F894DEBFAE
:1010A0000FBECDBFCF91DF910895DF93CF93CDB722
:1010B000DEB72C970FB6F894DEBF0FBECDBF9A8770
:1010C00089877C876B8781E060E041E00E9438047B
:1010D00081E061E040E00E94380481E062E040E0AD
:1010E0000E94380481E063E040E00E94380481E01F
:1010F00060E040E00E94230589859A8562E00E94B5
:10110000341DCC01A0E0B0E0BC01CD010E942B2633
:10111000DC01CB0189839A83AB83BC8360E070E4FC
:1011200080ED94E429813A814B815C810E9497256E
:10113000DC01CB01BC01CD0120E030E040E85FE301
:101140000E942E25DC01CB01BC01CD0120E030E066
:1011500048E453E40E94E126DC01CB018D839E83A9
:10116000AF83B8876D817E818F81988520E030E0E4
:101170004AE754E40E949325882324F4EB85FC85F8
:10118000108234C16D817E818F81988520E030E0AE
:101190004AEF54E40E94932588230CF052C0EB855B
:1011A000FC8581E0808381E060E040E00E943804BB
:1011B00081E061E041E00E94380481E062E040E0CB
:1011C0000E94380481E063E040E00E94380481E03E
:1011D00061E040E00E94230589859A8562E00E94D3
:1011E000341DCC01A0E0B0E0BC01CD010E942B2653
:1011F000DC01CB0189839A83AB83BC8360E070E41C
:1012000080ED94E429813A814B815C810E9497258D
:10121000DC01CB01BC01CD0120E030E040E85FE320
:101220000E942E25DC01CB019C01AD01CA01B90150
:101230000E942F25DC01CB018D839E83AF83B8876D
:10124000D5C06D817E818F81988520E030E44CE9A6
:1012500056E40E94932588230CF054C0EB85FC854E
:1012600081E0808381E060E040E00E94380481E01A
:1012700061E040E00E94380481E062E041E00E94C9
:10128000380481E063E040E00E94380481E062E0DD
:1012900040E00E94230589859A8562E00E94341D02
:1012A000CC01A0E0B0E0BC01CD010E942B26DC0106
:1012B000CB0189839A83AB83BC8360E070E480EDCB
:1012C00094E429813A814B815C810E949725DC015D
:1012D000CB01BC01CD0120E030E040E85FE30E949B
:1012E0002E25DC01CB01BC01CD0120E030E040EA3D
:1012F00051E40E94E126DC01CB018D839E83AF8304
:10130000B88774C081E060E040E00E94380481E06A
:1013100061E040E00E94380481E062E040E00E9429
:10132000380481E063E041E00E94380481E063E03A
:1013300040E00E94230589859A8562E00E94341D61
:10134000CC01A0E0B0E0BC01CD010E942B26DC0165
:10135000CB0189839A83AB83BC8360E070E480ED2A
:1013600094E429813A814B815C810E949725DC01BC
:10137000CB01BC01CD0120E030E040E85FE30E94FA
:101380002E25DC01CB01BC01CD0120E030E04BEE8D
:1013900053E40E94E126DC01CB018D839E83AF8361
:1013A000B8876D817E818F81988520E030E04AE7A3
:1013B00054E40E94DD261816ACF46D817E818F8185
:1013C000988520E030E04AE754E40E949725DC014C
:1013D000CB018D839E83AF83B887EB85FC8582E04C
:1013E000808304C0EB85FC8581E080838D819E81B4
:1013F000AF81B885BC01CD012C960FB6F894DEBF45
:101400000FBECDBFCF91DF910895DF93CF93CDB7BE
:10141000DEB728970FB6F894DEBF0FBECDBF9C8312
:101420008B837E836D8380E00E94D4079A838983B7
:1014300089819A8123E08538920720F0EB81FC8135
:10144000108225C089819A8132E08D3B930728F074
:10145000EB81FC8181E080831AC089819A8121E03F
:10146000853F920728F0EB81FC8182E080830FC0EA
:1014700089819A8131E08D32930728F0EB81FC81DC
:1014800083E0808304C0EB81FC8184E08083EB8176
:10149000FC819081ED81FE818081981709F446C01E
:1014A000EB81FC818081ED81FE8180830E94141597
:1014B000EB81FC818081282F30E038872F838F815A
:1014C00098858230910521F12F81388523303105AF
:1014D00054F48F819885009789F02F8138852130C9
:1014E000310589F023C08F81988583309105A9F05B
:1014F0002F81388524303105A9F018C080E690E0AE
:101500000E94901413C08EE690E00E9490140EC0CA
:101510008AE790E00E94901409C089E890E00E9458
:10152000901404C087E990E00E94901428960FB6AA
:10153000F894DEBF0FBECDBFCF91DF910895DF934A
:10154000CF9300D00F92CDB7DEB71B821A821982DB
:1015500082E00E94D4079A83898389819A81CC0191
:10156000A0E0B0E0BC01CD010E942B26DC01CB0144
:10157000BC01CD0120E030E046E153E40E94E126C9
:10158000DC01CB0120917D0130917E0140917F01F2
:1015900050918001BC01CD010E94E126DC01CB010C
:1015A000BC01CD0120E030ED4FEB54E40E949725C3
:1015B000DC01CB01BC01CD010E94FF25DC01CB0188
:1015C0008B838B810F900F900F90CF91DF910895B7
:1015D000DF93CF93CDB7DEB72E970FB6F894DEBF6B
:1015E0000FBECDBF82E066E041E00E94380482E099
:1015F00067E041E00E94380480E090E0A0EAB1E4B6
:101600008B879C87AD87BE876B857C858D859E8506
:1016100020E030E04AE755E40E94E126DC01CB01FE
:101620008F839887A987BA876F81788589859A85FE
:1016300020E030E040E85FE30E94932588232CF40B
:1016400081E090E09E838D833FC06F81788589859E
:101650009A8520E03FEF4FE757E40E94DD261816F9
:101660004CF56B857C858D859E8520E030E040E2E1
:1016700051E40E94E126DC01CB01BC01CD010E94B6
:10168000FF25DC01CB019E838D830FC080E991E0B3
:101690009C838B838B819C810197F1F79C838B8347
:1016A0008D819E8101979E838D838D819E81009780
:1016B00069F714C06F81788589859A850E94FF2516
:1016C000DC01CB019E838D838D819E819A838983EA
:1016D00089819A810197F1F79A83898382E062E098
:1016E00041E00E94380482E063E041E00E94380457
:1016F00082E064E041E00E94380482E065E041E07D
:101700000E94380483E30E949A0B82E30E949A0BA2
:1017100088E20E949A0B8CE00E949A0B81E00E9462
:101720009A0B2E960FB6F894DEBF0FBECDBFCF91A9
:10173000DF9108950F931F93DF93CF93CDB7DEB75B
:10174000C356D0400FB6F894DEBF0FBECDBFFE012A
:10175000ED59FF4F808382E066E040E00E94230560
:10176000FE01E15AFF4F80E090E0A0E8BFE38083F4
:101770009183A283B3838E01055A1F4FFE01E15A64
:10178000FF4F608171818281938120E030E04AE7E0
:1017900055E40E94E126DC01CB01F80180839183AE
:1017A000A283B383FE01E55AFF4F6081718182817C
:1017B000938120E030E040E85FE30E949325882396
:1017C00044F4FE01E75AFF4F81E090E0918380836B
:1017D00064C0FE01E55AFF4F60817181828193816F
:1017E00020E03FEF4FE757E40E94DD2618160CF08B
:1017F00043C0FE01E15AFF4F608171818281938174
:1018000020E030E040E251E40E94E126DC01CB011F
:101810008E01075A1F4FBC01CD010E94FF25DC013C
:10182000CB01F801918380831FC0FE01E95AFF4F6D
:1018300080E991E091838083FE01E95AFF4F808126
:1018400091810197F1F7FE01E95AFF4F918380835F
:10185000DE01A75ABF4FFE01E75AFF4F80819181F9
:10186000019711969C938E93FE01E75AFF4F80815A
:1018700091810097D1F627C08E01075A1F4FFE01B4
:10188000E55AFF4F60817181828193810E94FF251B
:10189000DC01CB01F80191838083DE01AB5ABF4F9D
:1018A000FE01E75AFF4F808191818D939C93FE0149
:1018B000EB5AFF4F808191810197F1F7FE01EB5ABE
:1018C000FF4F9183808382E067E041E00E9423051F
:1018D000FE01EF5AFF4F80E090E0A0E8BFE3808375
:1018E0009183A283B3838E01035B1F4FFE01EF5AE6
:1018F000FF4F608171818281938120E030E04AE76F
:1019000055E40E94E126DC01CB01F801808391833C
:10191000A283B383FE01E35BFF4F6081718182810B
:10192000938120E030E040E85FE30E949325882324
:1019300044F4FE01E55BFF4F81E090E091838083FA
:1019400064C0FE01E35BFF4F6081718182819381FE
:1019500020E03FEF4FE757E40E94DD2618160CF019
:1019600043C0FE01EF5AFF4F6081718182819381F4
:1019700020E030E040E251E40E94E126DC01CB01AE
:101980008E01055B1F4FBC01CD010E94FF25DC01CC
:10199000CB01F801918380831FC0FE01E75BFF4FFD
:1019A00080E991E091838083FE01E75BFF4F8081B6
:1019B00091810197F1F7FE01E75BFF4F91838083EF
:1019C000DE01A55BBF4FFE01E55BFF4F808191818A
:1019D000019711969C938E93FE01E55BFF4F8081EA
:1019E00091810097D1F627C08E01055B1F4FFE0144
:1019F000E35BFF4F60817181828193810E94FF25AB
:101A0000DC01CB01F80191838083DE01A95BBF4F2C
:101A1000FE01E55BFF4F808191818D939C93FE01D8
:101A2000E95BFF4F808191810197F1F7FE01E95B4E
:101A3000FF4F91838083FE01ED59FF4F8081882FF6
:101A400090E080719070959587959595879595957F
:101A5000879595958795982F82E062E0492F0E949F
:101A60002305FE01ED59FF4F8081882F90E08072A1
:101A7000907095958795959587959595879595956A
:101A8000879595958795982F82E063E0492F0E946E
:101A90002305FE01ED59FF4F8081882F90E080746F
:101AA0009070082E892F000C881F990B000C881F3E
:101AB000991F982F82E064E0492F0E942305FE01C0
:101AC000ED59FF4F8081982F991F9927991F82E028
:101AD00065E0492F0E942305FE01ED5BFF4F80E08A
:101AE00090E0A0E8BFE380839183A283B3838E015B
:101AF000015C1F4FFE01ED5BFF4F608171818281B0
:101B0000938120E030E04AE755E40E94E126DC01C1
:101B1000CB01F80180839183A283B383FE01FF96FA
:101B2000608171818281938120E030E040E85FE351
:101B30000E94932588232CF481E090E09EAF8DAF26
:101B400046C0FE01FF96608171818281938120E011
:101B50003FEF4FE757E40E94DD26181664F5FE01BB
:101B6000ED5BFF4F608171818281938120E030E0E5
:101B700040E251E40E94E126DC01CB01BC01CD0131
:101B80000E94FF25DC01CB019EAF8DAF0FC080E925
:101B900091E09CAF8BAF8BAD9CAD0197F1F79CAF03
:101BA0008BAF8DAD9EAD01979EAF8DAF8DAD9EADD0
:101BB000009769F716C0FE01FF96608171818281EE
:101BC00093810E94FF25DC01CB019EAF8DAF8DADCF
:101BD0009EAD9AAF89AF89AD9AAD0197F1F79AAFF3
:101BE00089AF82E067E040E00E94230580E090E05A
:101BF000A0E8BFE38DAB9EABAFABB8AF6DA97EA93C
:101C00008FA998AD20E030E04AE755E40E94E12634
:101C1000DC01CB0189AB9AABABABBCAB69A97AA9B0
:101C20008BA99CA920E030E040E85FE30E94932567
:101C300088232CF481E090E098AB8FA73FC069A97E
:101C40007AA98BA99CA920E03FEF4FE757E40E94B7
:101C5000DD2618164CF56DA97EA98FA998AD20E058
:101C600030E040E251E40E94E126DC01CB01BC01FE
:101C7000CD010E94FF25DC01CB0198AB8FA70FC0DF
:101C800080E991E09EA78DA78DA59EA50197F1F70C
:101C90009EA78DA78FA598A9019798AB8FA78FA511
:101CA00098A9009769F714C069A97AA98BA99CA97A
:101CB0000E94FF25DC01CB0198AB8FA78FA598A9C7
:101CC0009CA78BA78BA59CA50197F1F79CA78BA739
:101CD00082E067E041E00E94230580E090E0A0E818
:101CE000BFE38FA398A7A9A7BAA76FA178A589A5D5
:101CF0009AA520E030E04AE755E40E94E126DC01A5
:101D0000CB018BA39CA3ADA3BEA36BA17CA18DA192
:101D10009EA120E030E040E85FE30E949325882305
:101D20002CF481E090E09AA389A33FC06BA17CA131
:101D30008DA19EA120E03FEF4FE757E40E94DD26F2
:101D400018164CF56FA178A589A59AA520E030E07A
:101D500040E251E40E94E126DC01CB01BC01CD014F
:101D60000E94FF25DC01CB019AA389A30FC080E963
:101D700091E098A38F8F8F8D98A10197F1F798A389
:101D80008F8F89A19AA101979AA389A389A19AA16A
:101D9000009769F714C06BA17CA18DA19EA10E9440
:101DA000FF25DC01CB019AA389A389A19AA19E8F6B
:101DB0008D8F8D8D9E8D0197F1F79E8F8D8FFE01FA
:101DC000ED59FF4F8081982F917082E062E0492F9A
:101DD0000E942305FE01ED59FF4F8081882F90E07E
:101DE0008270907095958795982F82E063E0492FD7
:101DF0000E942305FE01ED59FF4F8081882F90E05E
:101E0000847090709595879595958795982F82E029
:101E100064E0492F0E942305FE01ED59FF4F8081A8
:101E2000882F90E088709070959587959595879507
:101E300095958795982F82E065E0492F0E942305AC
:101E400080E090E0A0E8BFE3898F9A8FAB8FBC8FD2
:101E5000698D7A8D8B8D9C8D20E030E04AE755E4CA
:101E60000E94E126DC01CB018D8B9E8BAF8BB88F5E
:101E70006D897E898F89988D20E030E040E85FE3AE
:101E80000E94932588232CF481E090E09C8B8B8B1F
:101E90003FC06D897E898F89988D20E03FEF4FE7A5
:101EA00057E40E94DD2618164CF5698D7A8D8B8DCE
:101EB0009C8D20E030E040E251E40E94E126DC010C
:101EC000CB01BC01CD010E94FF25DC01CB019C8B25
:101ED0008B8B0FC080E991E09A8B898B89899A89D5
:101EE0000197F1F79A8B898B8B899C8901979C8B41
:101EF0008B8B8B899C89009769F714C06D897E89CB
:101F00008F89988D0E94FF25DC01CB019C8B8B8BE8
:101F10008B899C89988B8F878F8598890197F1F79A
:101F2000988B8F8782E067E040E00E94230580E085
:101F300090E0A0E8BFE38B879C87AD87BE876B8569
:101F40007C858D859E8520E030E04AE755E40E943F
:101F5000E126DC01CB018F839887A987BA876F813F
:101F6000788589859A8520E030E040E85FE30E942B
:101F7000932588232CF481E090E09E838D833FC0DD
:101F80006F81788589859A8520E03FEF4FE757E498
:101F90000E94DD2618164CF56B857C858D859E8507
:101FA00020E030E040E251E40E94E126DC01CB0178
:101FB000BC01CD010E94FF25DC01CB019E838D83F6
:101FC0000FC080E991E09C838B838B819C8101977A
:101FD000F1F79C838B838D819E8101979E838D83F6
:101FE0008D819E81009769F714C06F8178858985FE
:101FF0009A850E94FF25DC01CB019E838D838D8114
:102000009E819A83898389819A810197F1F79A83C6
:102010008983CD59DF4F0FB6F894DEBF0FBECDBF19
:10202000CF91DF911F910F9108950F931F93DF932D
:10203000CF93CDB7DEB7C356D0400FB6F894DEBF0E
:102040000FBECDBFFE01ED59FF4F808382E066E0F9
:1020500041E00E942305FE01E15AFF4F80E090E03D
:10206000A0E8BFE380839183A283B3838E01055AE6
:102070001F4FFE01E15AFF4F608171818281938180
:1020800020E030E04AE755E40E94E126DC01CB0184
:10209000F80180839183A283B383FE01E55AFF4F49
:1020A000608171818281938120E030E040E85FE3CC
:1020B0000E949325882344F4FE01E75AFF4F81E0F4
:1020C00090E09183808364C0FE01E55AFF4F6081F8
:1020D00071818281938120E03FEF4FE757E40E94B6
:1020E000DD2618160CF043C0FE01E15AFF4F608157
:1020F00071818281938120E030E040E251E40E94CE
:10210000E126DC01CB018E01075A1F4FBC01CD0136
:102110000E94FF25DC01CB01F801918380831FC061
:10212000FE01E95AFF4F80E991E091838083FE012F
:10213000E95AFF4F808191810197F1F7FE01E95A39
:10214000FF4F91838083DE01A75ABF4FFE01E75AFC
:10215000FF4F80819181019711969C938E93FE0190
:10216000E75AFF4F808191810097D1F627C08E01F9
:10217000075A1F4FFE01E55AFF4F6081718182812E
:1021800093810E94FF25DC01CB01F80191838083BC
:10219000DE01AB5ABF4FFE01E75AFF4F80819181AC
:1021A0008D939C93FE01EB5AFF4F808191810197A3
:1021B000F1F7FE01EB5AFF4F9183808382E067E0E5
:1021C00041E00E942305FE01EF5AFF4F80E090E0BE
:1021D000A0E8BFE380839183A283B3838E01035B76
:1021E0001F4FFE01EF5AFF4F608171818281938101
:1021F00020E030E04AE755E40E94E126DC01CB0113
:10220000F80180839183A283B383FE01E35BFF4FD8
:10221000608171818281938120E030E040E85FE35A
:102220000E949325882344F4FE01E55BFF4F81E083
:1022300090E09183808364C0FE01E35BFF4F608187
:1022400071818281938120E03FEF4FE757E40E9444
:10225000DD2618160CF043C0FE01EF5AFF4F6081D7
:1022600071818281938120E030E040E251E40E945C
:10227000E126DC01CB018E01055B1F4FBC01CD01C6
:102280000E94FF25DC01CB01F801918380831FC0F0
:10229000FE01E75BFF4F80E991E091838083FE01BF
:1022A000E75BFF4F808191810197F1F7FE01E75BCA
:1022B000FF4F91838083DE01A55BBF4FFE01E55B8D
:1022C000FF4F80819181019711969C938E93FE011F
:1022D000E55BFF4F808191810097D1F627C08E0189
:1022E000055B1F4FFE01E35BFF4F608171818281BF
:1022F00093810E94FF25DC01CB01F801918380834B
:10230000DE01A95BBF4FFE01E55BFF4F808191813C
:102310008D939C93FE01E95BFF4F80819181019732
:10232000F1F7FE01E95BFF4F91838083FE01ED59D8
:10233000FF4F8081882F90E08071907095958795F0
:10234000959587959595879595958795982F82E092
:1023500062E0492F0E942305FE01ED59FF4F808165
:10236000882F90E0807290709595879595958795C8
:10237000959587959595879595958795982F82E062
:1023800063E0492F0E942305FE01ED59FF4F808134
:10239000882F90E080749070082E892F000C881F81
:1023A000990B000C881F991F982F82E064E0492F39
:1023B0000E942305FE01ED59FF4F8081982F991F40
:1023C0009927991F82E065E0492F0E942305FE01AD
:1023D000ED5BFF4F80E090E0A0E8BFE38083918356
:1023E000A283B3838E01015C1F4FFE01ED5BFF4FA3
:1023F000608171818281938120E030E04AE755E479
:102400000E94E126DC01CB01F80180839183A28345
:10241000B383FE01FF96608171818281938120E008
:1024200030E040E85FE30E94932588232CF481E0AC
:1024300090E09EAF8DAF46C0FE01FF966081718136
:102440008281938120E03FEF4FE757E40E94DD2631
:10245000181664F5FE01ED5BFF4F6081718182818A
:10246000938120E030E040E251E40E94E126DC016B
:10247000CB01BC01CD010E94FF25DC01CB019EAF49
:102480008DAF0FC080E991E09CAF8BAF8BAD9CAD61
:102490000197F1F79CAF8BAF8DAD9EAD01979EAFCD
:1024A0008DAF8DAD9EAD009769F716C0FE01FF960A
:1024B00060817181828193810E94FF25DC01CB01C3
:1024C0009EAF8DAF8DAD9EAD9AAF89AF89AD9AAD00
:1024D0000197F1F79AAF89AF82E067E040E00E9490
:1024E000230580E090E0A0E8BFE38DAB9EABAFABEF
:1024F000B8AF6DA97EA98FA998AD20E030E04AE77A
:1025000055E40E94E126DC01CB0189AB9AABABAB71
:10251000BCAB69A97AA98BA99CA920E030E040E86E
:102520005FE30E94932588232CF481E090E098AB30
:102530008FA73FC069A97AA98BA99CA920E03FEF8A
:102540004FE757E40E94DD2618164CF56DA97EA9C9
:102550008FA998AD20E030E040E251E40E94E126EE
:10256000DC01CB01BC01CD010E94FF25DC01CB01C8
:1025700098AB8FA70FC080E991E09EA78DA78DA58E
:102580009EA50197F1F79EA78DA78FA598A9019702
:1025900098AB8FA78FA598A9009769F714C069A970
:1025A0007AA98BA99CA90E94FF25DC01CB0198ABDD
:1025B0008FA78FA598A99CA78BA78BA59CA50197F2
:1025C000F1F79CA78BA782E067E041E00E9423051A
:1025D00080E090E0A0E8BFE38FA398A7A9A7BAA7DF
:1025E0006FA178A589A59AA520E030E04AE755E4D7
:1025F0000E94E126DC01CB018BA39CA3ADA3BEA36B
:102600006BA17CA18DA19EA120E030E040E85FE3BA
:102610000E94932588232CF481E090E09AA389A35B
:102620003FC06BA17CA18DA19EA120E03FEF4FE7B1
:1026300057E40E94DD2618164CF56FA178A589A5F0
:102640009AA520E030E040E251E40E94E126DC015E
:10265000CB01BC01CD010E94FF25DC01CB019AA377
:1026600089A30FC080E991E098A38F8F8F8D98A1E7
:102670000197F1F798A38F8F89A19AA101979AA347
:1026800089A389A19AA1009769F714C06BA17CA1C5
:102690008DA19EA10E94FF25DC01CB019AA389A3F5
:1026A00089A19AA19E8F8D8F8D8D9E8D0197F1F7B7
:1026B0009E8F8D8FFE01ED59FF4F8081982F917075
:1026C00082E062E0492F0E942305FE01ED59FF4F91
:1026D0008081882F90E08270907095958795982FD3
:1026E00082E063E0492F0E942305FE01ED59FF4F70
:1026F0008081882F90E0847090709595879595954E
:102700008795982F82E064E0492F0E942305FE01FF
:10271000ED59FF4F8081882F90E0887090709595DB
:1027200087959595879595958795982F82E065E093
:10273000492F0E94230580E090E0A0E8BFE3898F45
:102740009A8FAB8FBC8F698D7A8D8B8D9C8D20E09D
:1027500030E04AE755E40E94E126DC01CB018D8B95
:102760009E8BAF8BB88F6D897E898F89988D20E085
:1027700030E040E85FE30E94932588232CF481E059
:1027800090E09C8B8B8B3FC06D897E898F89988D63
:1027900020E03FEF4FE757E40E94DD2618164CF586
:1027A000698D7A8D8B8D9C8D20E030E040E251E484
:1027B0000E94E126DC01CB01BC01CD010E94FF2576
:1027C000DC01CB019C8B8B8B0FC080E991E09A8B55
:1027D000898B89899A890197F1F79A8B898B8B89E3
:1027E0009C8901979C8B8B8B8B899C89009769F7BF
:1027F00014C06D897E898F89988D0E94FF25DC0128
:10280000CB019C8B8B8B8B899C89988B8F878F8539
:1028100098890197F1F7988B8F8782E067E040E015
:102820000E94230580E090E0A0E8BFE38B879C87AF
:10283000AD87BE876B857C858D859E8520E030E0E9
:102840004AE755E40E94E126DC01CB018F8398879B
:10285000A987BA876F81788589859A8520E030E0DD
:1028600040E85FE30E94932588232CF481E090E008
:102870009E838D833FC06F81788589859A8520E00E
:102880003FEF4FE757E40E94DD2618164CF56B85A5
:102890007C858D859E8520E030E040E251E40E94F9
:1028A000E126DC01CB01BC01CD010E94FF25DC014A
:1028B000CB019E838D830FC080E991E09C838B8345
:1028C0008B819C810197F1F79C838B838D819E8105
:1028D00001979E838D838D819E81009769F714C037
:1028E0006F81788589859A850E94FF25DC01CB015F
:1028F0009E838D838D819E819A83898389819A812C
:102900000197F1F79A838983CD59DF4F0FB6F89479
:10291000DEBF0FBECDBFCF91DF911F910F91089504
:10292000DF93CF9300D00F92CDB7DEB79B838A831E
:1029300019820EC08981282F30E08A819B81FC0199
:10294000E20FF31F80810E94151089818F5F8983B8
:102950008981282F30E08A819B81FC01E20FF31FDF
:102960008081882339F70F900F900F90CF91DF91DE
:102970000895DF93CF9300D000D00F92CDB7DEB78C
:102980008A836B838A81282F30E03D832C838C815E
:102990009D8181309105C1F02C813D81223031052E
:1029A0002CF48C819D81009761F019C02C813D81B0
:1029B0002230310569F08C819D818330910561F071
:1029C0000EC08B8189830BC08B81805C898307C09B
:1029D0008B81805F898303C08B81805B8983898140
:1029E00080680E949A0B0F900F900F900F900F909D
:1029F000CF91DF910895DF93CF9300D000D0CDB772
:102A0000DEB789836A835C834B8389816A810E94F4
:102A1000B9148B819C810E9490140F900F900F909D
:102A20000F90CF91DF910895DF93CF93CDB7DEB7AD
:102A300081E00E949A0BCF91DF910895DF93CF93AD
:102A4000CDB7DEB762970FB6F894DEBF0FBECDBF2D
:102A50009A8B898B89899A89AA2797FDA095BA2F85
:102A6000BC01CD019E012F5F3F4FA9012AE030E05C
:102A70000E94DE27CE0101960E94901462960FB646
:102A8000F894DEBF0FBECDBFCF91DF9108950F93B5
:102A90001F93DF93CF93CDB7DEB764970FB6F8944B
:102AA000DEBF0FBECDBF698B7A8B8B8B9C8B8989E8
:102AB0009A89AB89BC89BC01CD0140E022E0FE01CE
:102AC00031968F010E94BD27CE0101960E9490147D
:102AD00064960FB6F894DEBF0FBECDBFCF91DF91E5
:102AE0001F910F910895DF93CF930F92CDB7DEB76B
:102AF000898324EA30E0898160E0A9010E94FB1407
:102B00000F90CF91DF910895DF93CF9300D000D045
:102B10000F92CDB7DEB79C838B836D838D81883018
:102B200020F58D81882F90E0880F991F880F991FBD
:102B3000880F991F8A838A8180640E949A0B198268
:102B40000EC08981282F30E08B819C81FC01E20F2F
:102B5000F31F80810E94151089818F5F898389818D
:102B6000883078F380E80E949A0B0F900F900F90B6
:102B70000F900F90CF91DF910895DF93CF930F9235
:102B8000CDB7DEB7898389810E9415100F90CF9150
:102B9000DF910895DF93CF93CDB7DEB76D970FB672
:102BA000F894DEBF0FBECDBFCE0143969A8F898FBA
:102BB000EEE1F1E0FC8FEB8FF6E0FD8FEB8DFC8D0D
:102BC00000808B8D9C8D01969C8F8B8FE98DFA8D6B
:102BD0000082898D9A8D01969A8F898F9D8D915053
:102BE0009D8FED8DEE2351F780E063E040E00E9481
:102BF000380483E060E041E00E94380483E060E054
:102C000041E00E94230580E090E0A0EAB0E48B87D9
:102C10009C87AD87BE876B857C858D859E8520E0F2
:102C200030E04AE755E40E94E126DC01CB018F83C6
:102C30009887A987BA876F81788589859A8520E0EA
:102C400030E040E85FE30E94932588232CF481E084
:102C500090E09E838D833FC06F81788589859A85BA
:102C600020E03FEF4FE757E40E94DD2618164CF5B1
:102C70006B857C858D859E8520E030E040E251E4C7
:102C80000E94E126DC01CB01BC01CD010E94FF25A1
:102C9000DC01CB019E838D830FC080E991E09C8392
:102CA0008B838B819C810197F1F79C838B838D8132
:102CB0009E8101979E838D838D819E81009769F708
:102CC00014C06F81788589859A850E94FF25DC0173
:102CD000CB019E838D838D819E819A838983898197
:102CE0009A810197F1F79A83898383E060E040E05D
:102CF0000E94230580E063E00E940E06813099F572
:102D000080E063E00E940E068130D1F3CE0143964D
:102D10000E94D70280E063E00E940E068823D1F370
:102D200080E063E00E940E068130D1F380E063E032
:102D30000E940E068823D1F380E063E00E940E0615
:102D40008130D1F30E945103DC01CB01BC01CD01E4
:102D50000E942B26DC01CB018F87988BA98BBA8B25
:102D60000E94290332C080E063E00E940E0688239F
:102D7000D1F3CE0143960E94D70280E063E00E9427
:102D80000E068130D1F380E063E00E940E068823B6
:102D9000D1F380E063E00E940E068130D1F380E041
:102DA00063E00E940E068823D1F30E945103DC01E8
:102DB000CB01BC01CD010E942B26DC01CB018F870A
:102DC000988BA98BBA8B0E9429036F857889898992
:102DD0009A8920E030E040E052E40E949725DC012F
:102DE000CB018F87988BA98BBA8B6F85788989895E
:102DF0009A892F85388949895A890E94E126DC0100
:102E0000CB01BC01CD0127EE39EE4DE952E40E9421
:102E10009725DC01CB018F87988BA98BBA8B8F8587
:102E20009889A989BA89BC01CD016D960FB6F8942D
:102E3000DEBF0FBECDBFCF91DF910895EF92FF921D
:102E40000F931F93DF93CF93CDB7DEB7CA54D04013
:102E50000FB6F894DEBF0FBECDBFFE01E85BFF4F9B
:102E60009183808380E090E0A0E0B0E08A8B9B8B30
:102E7000AC8BBD8B80E090E0A0E0B0E08E879F87B8
:102E8000A88BB98B198280C0FE01E85BFF4F80815F
:102E9000918163E00E94341D9F8F8E8F8E8D9F8D58
:102EA000CC01A0E0B0E0BC01CD010E942B26DC01EA
:102EB000CB01BC01CD012DE33AEA46EA53E40E947E
:102EC0009725DC01CB018A8F9B8FAC8FBD8F6A8DDC
:102ED0007B8D8C8D9D8D20E030E040E250E40E949F
:102EE0002E25DC01CB01BC01CD012DEC3CEC4CECE2
:102EF0005DE30E949725DC01CB018E8B9F8BA88F11
:102F0000B98F8981882F90E09C01220F331F220FF7
:102F1000331FCE010196820F931FFC017F968E898D
:102F20009F89A88DB98D80839183A283B3836A8999
:102F30007B898C899D892E893F89488D598D0E9476
:102F40002F25DC01CB018A8B9B8BAC8BBD8B6E89D3
:102F50007F89888D998D2E893F89488D598D0E9452
:102F6000E126DC01CB019C01AD016E857F8588895E
:102F700099890E942F25DC01CB018E879F87A88B22
:102F8000B98B89818F5F898389818A3008F47CCFEE
:102F90006A897B898C899D8920E030E040E251E498
:102FA0000E949725DC01CB018A879B87AC87BD8770
:102FB0006E857F858889998920E030E040E251E480
:102FC0000E949725DC01CB017C018D016A857B8500
:102FD0008C859D852A853B854C855D850E94E126F3
:102FE000DC01CB019C01AD01C801B7010E942E2577
:102FF000DC01CB018E839F83A887B9878E819F8157
:10300000A885B985BC01CD010E944827DC01CB0110
:103010008A839B83AC83BD836A817B818C819D8104
:103020002DEC3CEC4CE45DE30E94DD2618162CF4FC
:1030300081E02B968FAF2B9703C02B961FAE2B975B
:103040002B968FAD2B97C65BDF4F0FB6F894DEBF84
:103050000FBECDBFCF91DF911F910F91FF90EF90E9
:103060000895DF93CF93CDB7DEB763970FB6F8948B
:10307000DEBF0FBECDBF9B8B8A8B8A899B890E9446
:103080001E17898B80E090E0A0E0B0E08B839C83EA
:10309000AD83BE838AE08A8319826BC08A899B894B
:1030A00063E00E94341D988B8F878F859889CC01AF
:1030B000A0E0B0E0BC01CD010E942B26DC01CB01D9
:1030C000BC01CD012DE33AEA46EA53E40E9497257C
:1030D000DC01CB018B879C87AD87BE876B857C85A8
:1030E0008D859E8520E030E040E250E40E942E2550
:1030F000DC01CB01BC01CD012DEC3CEC4CEC5DE3E3
:103100000E949725DC01CB018F839887A987BA8716
:1031100089898130D9F46F81788589859A852F8155
:10312000388549855A850E94E126DC01CB019C0146
:10313000AD016B817C818D819E810E942F25DC01F8
:10314000CB018B839C83AD83BE8310C06B817C815C
:103150008D819E812F81388549855A850E942F2532
:10316000DC01CB018B839C83AD83BE8389818F5F20
:10317000898399818A81981708F490CF8989813051
:1031800001F58A81882F90E0AA2797FDA095BA2F94
:10319000BC01CD010E942D269B01AC016B817C817D
:1031A0008D819E810E949725DC01CB01BC01CD0160
:1031B0000E944827DC01CB018F839887A987BA87B3
:1031C00019C08A81882F90E0AA2797FDA095BA2F71
:1031D000BC01CD010E942D269B01AC016B817C813D
:1031E0008D819E810E949725DC01CB018F8398877A
:1031F000A987BA878F819885A985BA85BC01CD0139
:1032000063960FB6F894DEBF0FBECDBFCF91DF91AE
:103210000895EF92FF920F931F93DF93CF93CDB753
:10322000DEB7C154D0400FB6F894DEBF0FBECDBF9D
:103230009CAF8BAFAE014B5C5F4F5EAF4DAF84E296
:1032400091E021969FAF8EAF219796E022969FAF97
:1032500022972196EEADFFAD2197008021964EADCD
:103260005FAD21974F5F5F4F21965FAF4EAF2197C4
:10327000EDADFEAD00824DAD5EAD4F5F5F4F5EAF19
:103280004DAF22965FAD2297515022965FAF2297A5
:1032900022968FAD22978823E1F680917C018823C6
:1032A00009F014C181E064E041E00E94380481E04B
:1032B00065E040E00E94380481E066E040E00E9462
:1032C000380480E061E040E00E94380480E062E081
:1032D00041E00E94380480E062E040E00E94230563
:1032E00081E064E040E00E94230580E090E0A8E4F3
:1032F000B2E48FA398A7A9A7BAA76FA178A589A5BB
:103300009AA520E030E04AE755E40E94E126DC017E
:10331000CB018BA39CA3ADA3BEA36BA17CA18DA16C
:103320009EA120E030E040E85FE30E9493258823DF
:103330002CF481E090E09AA389A33FC06BA17CA10B
:103340008DA19EA120E03FEF4FE757E40E94DD26CC
:1033500018164CF56FA178A589A59AA520E030E054
:1033600040E251E40E94E126DC01CB01BC01CD0129
:103370000E94FF25DC01CB019AA389A30FC080E93D
:1033800091E098A38F8F8F8D98A10197F1F798A363
:103390008F8F89A19AA101979AA389A389A19AA144
:1033A000009769F714C06BA17CA18DA19EA10E941A
:1033B000FF25DC01CB019AA389A389A19AA19E8F45
:1033C0008D8F8D8D9E8D0197F1F79E8F8D8F81E072
:1033D00064E041E00E94230581E089AFCE01C596FB
:1033E0000E94D70281E00E94D407E2E088389E075D
:1033F000C8F30E945103DC01CB01BC01CD010E9446
:103400002B26DC01CB01BC01CD0120E030E44CE1F6
:1034100058E40E949725DC01CB0189AB9AABABAB9A
:10342000BCAB0E94290369A97AA98BA99CA920E0B9
:1034300030E040E85FE30E94DD2618162CF4EBAD87
:10344000FCAD82E0808328C069A97AA98BA99CA9D8
:103450002DEC3CEC4CEC5DE30E94DD261816ACF440
:10346000EBADFCAD81E0808369A97AA98BA99CA909
:1034700020E030E04AE754E40E94E126DC01CB0181
:1034800089AB9AABABABBCAB07C081E080937C014E
:10349000EBADFCAD85E0808381E064E040E00E941C
:1034A000230581E065E041E00E94380481E065E0A9
:1034B00040E00E94230581E00E94D4070097D9F7DD
:1034C00081E065E040E00E943804DDC181E064E015
:1034D00040E00E94380481E065E040E00E9438044A
:1034E00081E066E040E00E94380480E061E040E076
:1034F0000E94380480E062E041E00E94380480E0ED
:1035000062E041E00E94230581E00E94D40798AB6D
:103510008FA780E061E040E00E9423058FA598A975
:10352000F3E08A3F9F0708F0BCC080E061E041E023
:103530000E94380480E061E041E00E9423058FA5ED
:1035400098A9CC01A0E0B0E0BC01CD010E942B26DF
:10355000DC01CB01BC01CD0120E030E040EC50E4C7
:103560000E94E126DC01CB017C018D012FEF33E0CD
:103570008FA598A9A901481B590BCA01CC01A0E04D
:10358000B0E0BC01CD010E942B269B01AC01C8011B
:10359000B7010E949725DC01CB0189AB9AABABAB9D
:1035A000BCAB80E061E040E00E94230580E062E087
:1035B00040E00E94230580E090E0A8E4B2E4898F17
:1035C0009A8FAB8FBC8F698D7A8D8B8D9C8D20E00F
:1035D00030E04AE755E40E94E126DC01CB018D8B07
:1035E0009E8BAF8BB88F6D897E898F89988D20E0F7
:1035F00030E040E85FE30E94932588232CF481E0CB
:1036000090E09C8B8B8B3FC06D897E898F89988DD4
:1036100020E03FEF4FE757E40E94DD2618164CF5F7
:10362000698D7A8D8B8D9C8D20E030E040E251E4F5
:103630000E94E126DC01CB01BC01CD010E94FF25E7
:10364000DC01CB019C8B8B8B0FC080E991E09A8BC6
:10365000898B89899A890197F1F79A8B898B8B8954
:103660009C8901979C8B8B8B8B899C89009769F730
:1036700014C06D897E898F89988D0E94FF25DC0199
:10368000CB019C8B8B8B8B899C89988B8F878F85AB
:1036900098890197F1F7988B8F87EBADFCAD10827D
:1036A000F2C081E064E040E00E94380481E065E01F
:1036B00040E00E94380481E066E041E00E94380466
:1036C00080E061E040E00E94380480E062E041E098
:1036D0000E94380480E062E040E00E94230581E01F
:1036E00066E041E00E94230581E089AFCE01C596E6
:1036F0000E94D70281E00E94D40752E088389507E3
:10370000C8F30E945103DC01CB01689413F8B6950D
:10371000A795979587951694D1F78BA79CA7ADA7EA
:10372000BEA76BA57CA58DA59EA50E942B26DC01BE
:10373000CB01BC01CD0120E030E04AE754E40E9417
:103740009725DC01CB0189AB9AABABABBCAB0E943C
:10375000290381E066E040E00E9423058BA59CA53B
:10376000ADA5BEA520E23EE440E050E0BC01CD01A5
:103770000E949B27DA01C901BC01CD010E942B26C2
:10378000DC01CB018B879C87AD87BE876B857C85F1
:103790008D859E8520E030E04AE755E40E94E126D1
:1037A000DC01CB018F839887A987BA876F817885E1
:1037B00089859A8520E030E040E85FE30E94932508
:1037C00088232CF481E090E09E838D833FC06F813D
:1037D000788589859A8520E03FEF4FE757E40E947E
:1037E000DD2618164CF56B857C858D859E8520E041
:1037F00030E040E251E40E94E126DC01CB01BC0153
:10380000CD010E94FF25DC01CB019E838D830FC07B
:1038100080E991E09C838B838B819C810197F1F7F8
:103820009C838B838D819E8101979E838D838D8167
:103830009E81009769F714C06F81788589859A8584
:103840000E94FF25DC01CB019E838D838D819E81AB
:103850009A83898389819A810197F1F79A83898371
:1038600069A97AA98BA99CA920E030E04AE754E431
:103870000E94DD2618161CF410927C0104C0EBADEA
:10388000FCAD81E0808389A99AA9ABA9BCA9BC0140
:10389000CD01CF5BDF4F0FB6F894DEBF0FBECDBFBB
:1038A000CF91DF911F910F91FF90EF900895DF93DB
:1038B000CF93CDB7DEB780E063E041E00E943804EB
:1038C00080E063E040E00E942305CF91DF910895FE
:1038D000DF93CF93CDB7DEB780E063E041E00E9495
:1038E0002305CF91DF910895DF93CF93CDB7DEB756
:1038F00080E063E040E00E942305CF91DF910895CE
:10390000DF93CF93CDB7DEB70E944702CF91DF910F
:103910000895DF93CF930F92CDB7DEB78983898166
:103920000E942C020F90CF91DF910895DF93CF93E7
:1039300000D000D0CDB7DEB789836A835C834B8328
:1039400089810E9419018A810E94891C8B819C8136
:10395000892F99270E94891C8B810E94891C0E94B3
:1039600028010F900F900F900F90CF91DF91089545
:103970000F931F93DF93CF9300D0CDB7DEB789832A
:103980006A8389810E94190180E00E94891C0E943B
:103990002801898162E00E94A0010E94801C882F7A
:1039A00090E0182F00270E94801C882F90E0802B29
:1039B000912B0F900F90CF91DF911F910F91089550
:1039C000DF93CF9300D00F92CDB7DEB79A83898370
:1039D0006B83E981FA818B818083E981FA8181E0BF
:1039E0008183E981FA8184E08283E981FA8114820A
:1039F00013820F900F900F90CF91DF910895DF9376
:103A0000CF9300D0CDB7DEB79A8389830E94FB00A5
:103A10000F900F90CF91DF910895DF93CF9300D057
:103A200000D0CDB7DEB79A8389837C836B83E9812D
:103A3000FA818B819C81948383830F900F900F90E8
:103A40000F90CF91DF910895DF93CF9300D0CDB742
:103A5000DEB79A838983E981FA81838194810F900B
:103A60000F90CF91DF910895DF93CF93CDB7DEB75D
:103A700067970FB6F894DEBF0FBECDBF9A8B898BC8
:103A80006B8B8B89843018F01F8A1E8AE2C083E812
:103A900091E0988B8F87E989FA89238134818F851A
:103AA0009889822B932B988B8F878B89282F30E0D6
:103AB0003D8B2C8B4C895D8941305105E1F08C891F
:103AC0009D898230910534F42C893D892115310579
:103AD00061F022C04C895D894230510591F08C899A
:103AE0009D898330910599F017C08F8598899064DE
:103AF000988B8F8711C08F8598899065988B8F8759
:103B00000BC08F8598899066988B8F8705C08F85AD
:103B100098899067988B8F878F8598899068988B04
:103B20008F87E989FA8980812F85388961E0A90129
:103B30000E94961CE989FA898181882F90E0A0E093
:103B4000B0E0BC01CD010E942B26DC01CB018B87AC
:103B50009C87AD87BE876B857C858D859E8520E0A3
:103B600030E04AE755E40E94E126DC01CB018F8377
:103B70009887A987BA876F81788589859A8520E09B
:103B800030E040E85FE30E94932588232CF481E035
:103B900090E09E838D833FC06F81788589859A856B
:103BA00020E03FEF4FE757E40E94DD2618164CF562
:103BB0006B857C858D859E8520E030E040E251E478
:103BC0000E94E126DC01CB01BC01CD010E94FF2552
:103BD000DC01CB019E838D830FC080E991E09C8343
:103BE0008B838B819C810197F1F79C838B838D81E3
:103BF0009E8101979E838D838D819E81009769F7B9
:103C000014C06F81788589859A850E94FF25DC0123
:103C1000CB019E838D838D819E819A838983898147
:103C20009A810197F1F79A838983E989FA898081DA
:103C300060E00E94B81C9C01E989FA898281882F82
:103C400090E0A90102C0569547958A95E2F75F8BEF
:103C50004E8B8E899F8967960FB6F894DEBF0FBE94
:103C6000CDBFCF91DF910895DF93CF93CDB7DEB76E
:103C700066970FB6F894DEBF0FBECDBF9C8B8B8BC3
:103C800083E891E09A8B898BEB89FC8923813481CD
:103C900089899A89822B932B9A8B898B89899A8916
:103CA00090689A8B898BEB89FC89808129893A8974
:103CB00061E0A9010E94961CEB89FC898181882F13
:103CC00090E0A0E0B0E0BC01CD010E942B26DC0119
:103CD000CB018B879C87AD87BE876B857C858D8567
:103CE0009E8520E030E04AE755E40E94E126DC01B1
:103CF000CB018F839887A987BA876F81788589855B
:103D00009A8520E030E040E85FE30E949325882315
:103D10002CF481E090E09E838D833FC06F81788595
:103D200089859A8520E03FEF4FE757E40E94DD2622
:103D300018164CF56B857C858D859E8520E030E0DE
:103D400040E251E40E94E126DC01CB01BC01CD013F
:103D50000E94FF25DC01CB019E838D830FC080E98B
:103D600091E09C838B838B819C810197F1F79C83ED
:103D70008B838D819E8101979E838D838D819E8112
:103D8000009769F714C06F81788589859A850E94AC
:103D9000FF25DC01CB019E838D838D819E819A83DB
:103DA000898389819A810197F1F79A838983EB89C5
:103DB000FC89808160E00E94B81C9C01EB89FC8931
:103DC0008281882F90E0A90102C0569547958A9577
:103DD000E2F7CA01988B8F87EB89FC89828188235F
:103DE00029F48F8598899E8B8D8B0FC08F8598893C
:103DF00028E08030920728F08F859889906F988B03
:103E00008F874F8558895E8B4D8B8D899E896696ED
:103E10000FB6F894DEBF0FBECDBFCF91DF910895EE
:103E2000DF93CF93CDB7DEB766970FB6F894DEBFBA
:103E30000FBECDBF9C8B8B8B83E891E09A8B898BD7
:103E4000EB89FC892381348189899A89822B932B80
:103E50009A8B898B89899A8990639A8B898B8989B6
:103E60009A8990689A8B898BEB89FC898081298952
:103E70003A8961E0A9010E94961CEB89FC89818145
:103E8000882F90E0A0E0B0E0BC01CD010E942B267D
:103E9000DC01CB018B879C87AD87BE876B857C85DA
:103EA0008D859E8520E030E04AE755E40E94E126BA
:103EB000DC01CB018F839887A987BA876F817885CA
:103EC00089859A8520E030E040E85FE30E949325F1
:103ED00088232CF481E090E09E838D833FC06F8126
:103EE000788589859A8520E03FEF4FE757E40E9467
:103EF000DD2618164CF56B857C858D859E8520E02A
:103F000030E040E251E40E94E126DC01CB01BC013B
:103F1000CD010E94FF25DC01CB019E838D830FC064
:103F200080E991E09C838B838B819C810197F1F7E1
:103F30009C838B838D819E8101979E838D838D8150
:103F40009E81009769F714C06F81788589859A856D
:103F50000E94FF25DC01CB019E838D838D819E8194
:103F60009A83898389819A810197F1F79A8389835A
:103F7000EB89FC89808160E00E94B81C9C01EB8980
:103F8000FC898281882F90E0A90102C0569547954F
:103F90008A95E2F7CA01988B8F87EB89FC89828129
:103FA000882329F48F8598899E8B8D8B0FC08F85F0
:103FB000988928E08030920728F08F859889906F43
:103FC000988B8F874F8558895E8B4D8B8D899E8905
:103FD00066960FB6F894DEBF0FBECDBFCF91DF91CE
:103FE0000895DF93CF93CDB7DEB729970FB6F89436
:103FF000DEBF0FBECDBF9C838B836D835F834E83FB
:1040000084E890E09A838983EB81FC812381348169
:1040100089819A81822B932B9A8389838D81282F82
:1040200030E0398728878885998581309105D9F0D6
:1040300028853985223031052CF4888599850097AB
:1040400061F022C0288539852230310591F08885BC
:1040500099858330910599F017C089819A81906480
:104060009A83898311C089819A8190659A83898313
:104070000BC089819A8190669A83898305C0898162
:104080009A8190679A838983EB81FC814081EB81DF
:10409000FC818281282F30E08E819F8102C0880FB1
:1040A000991F2A95E2F79C01842F63E0A9010E94E1
:1040B000961CEB81FC81808129813A8161E0A90114
:1040C0000E94961C29960FB6F894DEBF0FBECDBF96
:1040D000CF91DF910895DF93CF93CDB7DEB764978B
:1040E0000FB6F894DEBF0FBECDBF9A8B898BE989DE
:1040F000FA898181882F90E0A0E0B0E0BC01CD0179
:104100000E942B26DC01CB018B879C87AD87BE8765
:104110006B857C858D859E8520E030E04AE755E4FF
:104120000E94E126DC01CB018F839887A987BA879B
:104130006F81788589859A8520E030E040E85FE3EB
:104140000E94932588232CF481E090E09E838D8348
:104150003FC06F81788589859A8520E03FEF4FE7E2
:1041600057E40E94DD2618164CF56B857C858D85FD
:104170009E8520E030E040E251E40E94E126DC012F
:10418000CB01BC01CD010E94FF25DC01CB019E8348
:104190008D830FC080E991E09C838B838B819C8110
:1041A0000197F1F79C838B838D819E8101979E837C
:1041B0008D838D819E81009769F714C06F8178850A
:1041C00089859A850E94FF25DC01CB019E838D8322
:1041D0008D819E819A83898389819A810197F1F7E4
:1041E0009A838983E989FA89808160E00E94B81CFA
:1041F0009C01E989FA898281882F90E0A90102C097
:10420000569547958A95E2F7CA01988B8F87E98979
:10421000FA898281882329F48F8598899C8B8B8BDE
:104220000FC08F85988928E08030920728F08F850D
:104230009889906F988B8F874F8558895C8B4B8BB3
:104240008B899C8964960FB6F894DEBF0FBECDBFF4
:10425000CF91DF910895DF93CF93CDB7DEB7C956E5
:10426000D0400FB6F894DEBF0FBECDBFFE01E35BBA
:10427000FF4F81E08083FE01E35BFF4F87E0818396
:10428000CE018C5A9F4FA7969FAF8EAFA7972AE279
:1042900031E0A9963FAF2EAFA99737E0AA963FAF7E
:1042A000AA97A996EEADFFADA9970080A9962EAD6D
:1042B0003FADA9972F5F3F4FA9963FAF2EAFA9976C
:1042C000A796EEADFFADA7970082A7962EAD3FADA6
:1042D000A7972F5F3F4FA7963FAF2EAFA797AA96FE
:1042E0003FADAA973150AA963FAFAA97AA968FAD35
:1042F000AA978823B1F6FE01E45AFF4F85E0808338
:10430000FE01E25AFF4F85E08083AFE5B0E0EFE5C4
:10431000F0E0808180688C93CE01835B9F4F0E9488
:104320007607CE01815B9F4F68E40E94E01CCE01BE
:10433000815B9F4F0E94FF1CCE01815B9F4F60E01D
:1043400070E00E940D1D0E94E80ACE018C5A9F4F1A
:1043500060E00E94841585EB90E00E94901481E05B
:1043600060E00E94B91486EC90E00E94901480E016
:1043700090E0AAE7B4E48DAB9EABAFABB8AF6DA94C
:104380007EA98FA998AD20E030E04AE755E40E946D
:10439000E126DC01CB0189AB9AABABABBCAB69A925
:1043A0007AA98BA99CA920E030E040E85FE30E9455
:1043B000932588232CF481E090E098AB8FA73FC031
:1043C00069A97AA98BA99CA920E03FEF4FE757E4A0
:1043D0000E94DD2618164CF56DA97EA98FA998AD0F
:1043E00020E030E040E251E40E94E126DC01CB0114
:1043F000BC01CD010E94FF25DC01CB0198AB8FA74A
:104400000FC080E991E09EA78DA78DA59EA501977D
:10441000F1F79EA78DA78FA598A9019798AB8FA7B5
:104420008FA598A9009769F714C069A97AA98BA9E3
:104430009CA90E94FF25DC01CB0198AB8FA78FA51B
:1044400098A99CA78BA78BA59CA50197F1F79CA782
:104450008BA70E94141587ED90E00E94901481E0D4
:1044600060E00E94B91488EE90E00E94901480E011
:1044700090E0AAE7B4E48FA398A7A9A7BAA76FA171
:1044800078A589A59AA520E030E04AE755E40E9486
:10449000E126DC01CB018BA39CA3ADA3BEA36BA142
:1044A0007CA18DA19EA120E030E040E85FE30E9466
:1044B000932588232CF481E090E09AA389A33FC040
:1044C0006BA17CA18DA19EA120E03FEF4FE757E4B7
:1044D0000E94DD2618164CF56FA178A589A59AA52E
:1044E00020E030E040E251E40E94E126DC01CB0113
:1044F000BC01CD010E94FF25DC01CB019AA389A359
:104500000FC080E991E098A38F8F8F8D98A10197BC
:10451000F1F798A38F8F89A19AA101979AA389A3F4
:1045200089A19AA1009769F714C06BA17CA18DA104
:104530009EA10E94FF25DC01CB019AA389A389A13A
:104540009AA19E8F8D8F8D8D9E8D0197F1F79E8FF5
:104550008D8F0E94141580E090E0AAEFB3E4898F5C
:104560009A8FAB8FBC8F698D7A8D8B8D9C8D20E05F
:1045700030E04AE755E40E94E126DC01CB018D8B57
:104580009E8BAF8BB88F6D897E898F89988D20E047
:1045900030E040E85FE30E94932588232CF481E01B
:1045A00090E09C8B8B8B3FC06D897E898F89988D25
:1045B00020E03FEF4FE757E40E94DD2618164CF548
:1045C000698D7A8D8B8D9C8D20E030E040E251E446
:1045D0000E94E126DC01CB01BC01CD010E94FF2538
:1045E000DC01CB019C8B8B8B0FC080E991E09A8B17
:1045F000898B89899A890197F1F79A8B898B8B89A5
:104600009C8901979C8B8B8B8B899C89009769F780
:1046100014C06D897E898F89988D0E94FF25DC01E9
:10462000CB019C8B8B8B8B899C89988B8F878F85FB
:1046300098890197F1F7988B8F87CE01835A9F4F06
:104640009E01225A3F4FB9010E94050A81E065E0B0
:104650000E94B91489EF90E00E94901481E065E017
:104660000E94B914FE01E35AFF4F8081E82FF0E069
:10467000A596FFAFEEAFA597A5962EAD3FADA5973A
:104680002230310509F493C0A5968EAD9FADA59754
:10469000833091057CF4A596EEADFFADA5973097DC
:1046A000D1F0A5962EAD3FADA5972130310509F487
:1046B00061C061C1A5968EAD9FADA5978330910570
:1046C00009F4E3C0A596EEADFFADA597E430F10582
:1046D00009F419C150C1CE01815B9F4F9E01255A3B
:1046E0003F4FB9010E945508DC01CB01FE01E75B99
:1046F000FF4F80839183A283B383FE01E75BFF4F6B
:1047000080819181A281B381BC01CD010E944715B6
:10471000FE01E55AFF4F8081282F30E0A3963FAF7E
:104720002EAFA397A3968EAD9FADA3978130910531
:1047300099F0A396EEADFFADA397E230F10599F0A5
:10474000A3962EAD3FADA3972115310509F013C1F6
:1047500080E00E94BD150FC18BE40E94151080E01F
:104760000E94BD1508C18DE40E94151080E00E94D2
:10477000BD1501C1CE01815B9F4F0E940408DC0181
:10478000CB01FE01EB5BFF4F80839183A283B38358
:10479000FE01EB5BFF4F80819181A281B381BC015F
:1047A000CD010E94471586E50E941510E4C0CE0198
:1047B000845A9F4F0E940919DC01CB01FE01EF5B77
:1047C000FF4F80839183A283B383FE01E45AFF4F9E
:1047D0008081853009F4CFC0FE01EF5BFF4F8081FF
:1047E0009181A281B381BC01CD010E944715FE01D8
:1047F000E45AFF4F8081E82FF0E0A196FFAFEEAFC3
:10480000A197A1962EAD3FADA1972230310571F150
:10481000A1968EAD9FADA1978330910574F4A196BA
:10482000EEADFFADA1973097B9F0A1962EAD3FAD9B
:10483000A19721303105A9F09EC0A1968EAD9FAD04
:10484000A19783309105B9F0A196EEADFFADA19788
:10485000E430F105A9F08FC085E091E00E9490144A
:104860008AC088E091E00E94901485C08BE091E0BE
:104870000E94901480C08EE091E00E9490147BC052
:1048800081E191E00E94901476C00E94CA15DC017B
:10489000CB01FE01FD9680839183A283B383FE0149
:1048A000FD96608171818281938120E030E04AE74A
:1048B00054E40E94932588237CF4FE01FD968081B8
:1048C0009181A281B381BC01CD010E94471583E192
:1048D00091E00E9490144FC0FE01FD9660817181AD
:1048E0008281938120E030E04AE754E40E949725DA
:1048F000DC01CB01BC01CD010E94471586E191E0AE
:104900000E94901438C0CE01815B9F4F0E943118E5
:10491000DC01CB0189AF9AAFABAFBCAF69AD7AAD6B
:104920008BAD9CAD20E030E040E85FE30E94932532
:104930008823ACF469AD7AAD8BAD9CAD20E030E05E
:104940004AE754E40E94E126DC01CB01BC01CD0121
:104950000E94471589E191E00E9490140CC089AD36
:104960009AADABADBCADBC01CD010E9447158CE149
:1049700091E00E94901480E090E0AAEFB3E48B876E
:104980009C87AD87BE876B857C858D859E8520E065
:1049900030E04AE755E40E94E126DC01CB018F8339
:1049A0009887A987BA876F81788589859A8520E05D
:1049B00030E040E85FE30E94932588232CF481E0F7
:1049C00090E09E838D833FC06F81788589859A852D
:1049D00020E03FEF4FE757E40E94DD2618164CF524
:1049E0006B857C858D859E8520E030E040E251E43A
:1049F0000E94E126DC01CB01BC01CD010E94FF2514
:104A0000DC01CB019E838D830FC080E991E09C8304
:104A10008B838B819C810197F1F79C838B838D81A4
:104A20009E8101979E838D838D819E81009769F77A
:104A300004CE6F81788589859A850E94FF25DC01E7
:104A4000CB019E838D838D819E819A838983898109
:104A50009A810197F1F79A838983EFCD5058BB274C
:104A6000AA270ED070C161D130F066D120F031F4A8
:104A70009F3F11F41EF456C10EF4E095E7FB4CC1C4
:104A8000E92F72D180F3BA1762077307840795077D
:104A900018F071F49EF58AC10EF4E0950B2EBA2F32
:104AA000A02D0B01B90190010C01CA01A001112434
:104AB000FF27591B99F0593F50F4503E68F11A16E0
:104AC000F040A22F232F342F4427585FF3CF469571
:104AD00037952795A795F0405395C9F77EF41F1693
:104AE000BA0B620B730B840BBAF09150A1F0FF0F5D
:104AF000BB1F661F771F881FC2F70EC0BA0F621F49
:104B0000731F841F48F4879577956795B795F79538
:104B10009E3F08F0B3CF9395880F08F09927EE0FCA
:104B2000979587950895D4D008F481E008950CD026
:104B30000AC102D140F0F9D030F021F45F3F19F002
:104B4000EBC0511134C1EEC00FD198F39923C9F3D2
:104B50005523B1F3951B550BBB27AA276217730783
:104B6000840738F09F5F5F4F220F331F441FAA1F37
:104B7000A9F333D00E2E3AF0E0E830D091505040F7
:104B8000E695001CCAF729D0FE2F27D0660F771FA5
:104B9000881FBB1F261737074807AB07B0E809F087
:104BA000BB0B802DBF01FF2793585F4F2AF09E3F1C
:104BB000510568F0B1C0FBC05F3FECF3983EDCF3F9
:104BC000869577956795B795F7959F5FC9F7880F95
:104BD000911D9695879597F90895E1E0660F771FE7
:104BE000881FBB1F621773078407BA0720F0621B78
:104BF000730B840BBA0BEE1F88F7E0950895BCD0B9
:104C000088F09F5790F0B92F9927B751A0F0D1F0B5
:104C1000660F771F881F991F1AF0BA95C9F712C03F
:104C2000B13081F0C3D0B1E00895C0C0672F782FB4
:104C30008827B85F39F0B93FCCF3869577956795AB
:104C4000B395D9F73EF490958095709561957F4F17
:104C50008F4F9F4F0895E89409C097FB3EF49095BD
:104C60008095709561957F4F8F4F9F4F9923A9F045
:104C7000F92F96E9BB279395F695879577956795D4
:104C8000B795F111F8CFFAF4BB0F11F460FF1BC018
:104C90006F5F7F4F8F4F9F4F16C0882311F096E9AB
:104CA00011C0772321F09EE8872F762F05C0662359
:104CB00071F096E8862F70E060E02AF09A95660F12
:104CC000771F881FDAF7880F9695879597F90895CB
:104CD000990F0008550FAA0BE0E8FEEF161617060D
:104CE000E807F907C0F012161306E407F50798F075
:104CF000621B730B840B950B39F40A2661F0232B8E
:104D0000242B252B21F408950A2609F4A140A69509
:104D10008FEF811D811D089597F99F6780E870E0EE
:104D200060E008959FEF80EC089500240A94161621
:104D3000170618060906089500240A941216130689
:104D4000140605060895092E0394000C11F4882317
:104D500052F0BB0F40F4BF2B11F460FF04C06F5F33
:104D60007F4F8F4F9F4F089557FD9058440F551F09
:104D700059F05F3F71F04795880F97FB991F61F0DD
:104D80009F3F79F087950895121613061406551F54
:104D9000F2CF4695F1DF08C0161617061806991FC0
:104DA000F1CF86957105610508940895E894BB27B5
:104DB00066277727CB0197F908958ADF08F48FEFEC
:104DC00008950BD0C0CFB1DF28F0B6DF18F09523DF
:104DD00009F0A2CFA7CF1124EACFC6DFA0F3959F99
:104DE000D1F3950F50E0551F629FF001729FBB27D2
:104DF000F00DB11D639FAA27F00DB11DAA1F649F7E
:104E00006627B00DA11D661F829F2227B00DA11D30
:104E1000621F739FB00DA11D621F839FA00D611DB6
:104E2000221F749F3327A00D611D231F849F600DD7
:104E3000211D822F762F6A2F11249F5750408AF010
:104E4000E1F088234AF0EE0FFF1FBB1F661F771F9C
:104E5000881F91505040A9F79E3F510570F05CCFDC
:104E6000A6CF5F3FECF3983EDCF386957795679588
:104E7000B795F795E7959F5FC1F7FE2B880F911DBA
:104E80009695879597F9089511F40EF44BCF3EC08F
:104E900073DFD0F39923D9F3CEF39F57550B87FFD8
:104EA00043D00024A0E640EA90018058569597959B
:104EB00028F4805C660F771F881F20F026173707BD
:104EC000480730F4621B730B840B202931294A2BCD
:104ED000A69517940794202531254A2758F7660F81
:104EE000771F881F20F026173707480730F4620B1A
:104EF000730B840B200D311D411DA09581F7B90165
:104F0000842F9158880F9695879508959F3F31F08B
:104F1000915020F4879577956795B795880F911DE7
:104F20009695879597F9089591505040660F771F91
:104F3000881FD2F70895A1E21A2EAA1BBB1BFD0100
:104F40000DC0AA1FBB1FEE1FFF1FA217B307E40768
:104F5000F50720F0A21BB30BE40BF50B661F771FC0
:104F6000881F991F1A9469F76095709580959095A0
:104F70009B01AC01BD01CF010895EF92FF920F9309
:104F80001F93F22FF02E47FD02C0E4E001C0E4E1E0
:104F9000242F332727FD309537FF03C03095219507
:104FA0003F4F4F2D512F0F2FEE2E0E9403288F2D94
:104FB000912F1F910F91FF90EF900895FA01CF93D9
:104FC000FF93EF932230CCF02532BCF4C22F2C2F6C
:104FD000332744275527FF93EF930E949B27EF9198
:104FE000FF91605D6A330CF0695D6193B901CA019C
:104FF000605070408040904051F710828F919F9197
:10500000CF910C943D2AA9E0B0E0E9E0F8E20C94DD
:10501000512A6A01122FA02EBE2C2BE3201718F460
:105020002CE3922E02C0902E9394AE014F5F5F4FFF
:1050300027E0092D0E946529BC018981E82EFF2403
:10504000C70189709070019711F4ADE209C0B1FEFB
:1050500002C0ABE205C0B0FC02C0A0E001C0A0E20B
:10506000E3FE3BC0AA2311F423E001C024E0211792
:1050700010F020E002C0121B212FEB2CB4FE02C066
:10508000322F0AC0F601322F80E202C081933150E4
:105090003323E1F7C20ED11CAA2319F0F601A19324
:1050A0006F01F6013196E2FE05C09EE4D6019C93A5
:1050B00081E404C09EE6D6019C9381E611968C9310
:1050C00091833296DF01832F90E202C09D9381503D
:1050D0008823E1F7E30FF11D40C0E2FE42C0AA239E
:1050E00011F423E001C024E0211710F020E002C0F9
:1050F000121B212FEB2CB4FE02C0922F0AC0F60126
:10510000922F80E202C0819391509923E1F7C20E61
:10511000D11CAA2319F0F601A1936F01F601319673
:10512000E2FE08C089E4D6018C938EE411968C933C
:1051300086E407C089E6D6018C938EE611968C939F
:1051400086E681833296DF01892F20E202C02D930B
:1051500081508823E1F7E90FF11D10822EEF3FEF18
:10516000AFC0161617061CF041E050E003C0AB01BB
:105170004F5F5F4FAA2019F480E090E003C08A2DB2
:1051800090E0019620E030E0AA2311F021E030E029
:10519000240F351F280F391F812F90E0281739075A
:1051A00014F020E002C0121B212F4B2D50E0CA0149
:1051B00080719070B4FC0DC0B3FC0BC0F601322FAF
:1051C00040E202C0419331503323E1F7C20ED11CBB
:1051D00001C0322FAA2319F0F601A1936F01892B88
:1051E00011F0132F0AC0F601132F80E302C0819340
:1051F00011501123E1F7C30ED11C092D060FBA80FF
:1052000090E1892E912C8E209F20E4FE04C0F1E3D2
:10521000BF1609F40150101614F001E003C0093064
:1052200008F008E09B0177FF02C020E030E0CB01EE
:105230000196821B930BFE013196E80FF91F8EE257
:10524000F82E3B01601A71088A2D90E044275527FB
:10525000481B590B8FEF2F3F380719F4D601FD92E9
:105260006D01621773072CF06216730614F48081C7
:1052700001C080E32150304031962417350724F0D7
:10528000D6018D936D01E6CF2617370749F4B5E3B4
:10529000BB1528F0BB1621F48114910409F481E3B5
:1052A000F6018193D601812F90E202C09C93815038
:1052B00011968823D9F7E10FF11D108220E030E02C
:1052C000C9012996EEE00C946D2A283008F027E0F9
:1052D0003327DA01990F311D87FD91600096610532
:1052E000710539F432602E5F3D9330E32A95E1F782
:1052F00008959F3F30F080387105610509F03C5FEB
:105300003C5F3D93913008F08068911DDF93CF930F
:105310001F930F93FF92EF92192F987F9695E92F85
:1053200096959695E90FFF27E255FF4F992733276A
:10533000EE24FF24A701E70105900894079428F4C0
:10534000360FE71EF81E491F511D660F771F881F75
:10535000991F0694A1F70590079428F4E70EF81E0C
:10536000491F561FC11D770F881F991F661F06947E
:10537000A1F70590079428F4F80E491F561FC71F80
:10538000D11D880F991F661F771F0694A1F70590FE
:10539000079420F4490F561FC71FD81F990F661F87
:1053A000771F881F0694A9F784911095177041F014
:1053B000D695C79557954795F794E7941A95C1F7F1
:1053C000E4E5F0E06894159015913591659195911B
:1053D00005907FE27395E118F10A430B560BC90B58
:1053E000D009C0F7E10CF11E431F561FC91FD01D85
:1053F0007EF4703311F48A95E6CFE894015030F0D2
:10540000080F0AF40027021708F4202F2395022F13
:105410007A3328F079E37D932A95E9F710C07D93DC
:105420002A9589F606949795679537951795179459
:10543000E118F10A430B560BC90BD00998F02395DC
:105440007E9173957A3308F070E37C932013B8F75C
:105450007E9170617D9330F0839571E37D9370E36D
:105460002A95E1F71124EF90FF900F911F91CF91B2
:10547000DF91992787FD90950895DC01FC01672F46
:1054800071917723E1F7329704C07C916D9370831B
:105490006291AE17BF07C8F308952F923F924F92C3
:1054A0005F926F927F928F929F92AF92BF92CF92B4
:1054B000DF92EF92FF920F931F93CF93DF93CDB7BD
:1054C000DEB7CA1BDB0B0FB6F894DEBF0FBECDBF35
:1054D00009942A88398848885F846E847D848C8406
:1054E0009B84AA84B984C884DF80EE80FD800C810F
:1054F0001B81AA81B981CE0FD11D0FB6F894DEBFF2
:0C5500000FBECDBFED010895F894FFCF61
:10550C00202020526573697374616E6365002020DE
:10551C002020566F6C7461676500202020436170F9
:10552C0061636974616E636500202020496E647547
:10553C006374616E636500202020202043757272B5
:10554C00656E740020202020202020202020202088
:10555C00202020200020204175746F2D52616E6731
:10556C00696E672020002020204D756C74696D6574
:10557C00746572202020002020446576656C6F7065
:10558C00656420427920200020596F757373696619
:10559C0020486F7373616D20002020202020202074
:1055AC0020202020007046006E46007546006D4697
:1055BC000046007548006D48006D41004100000038
:1055CC00000001000000000004000E1111111B0A64
:0255DC001B00B2
:00000001FF
